:020000040800F2
:10000000D0070020C9000008EF0000084B070008D7
:1000100000000000000000000000000000000000E0
:10002000000000000000000000000000F3000008D5
:100030000000000000000000F5000008450900086D
:10004000F9000008F9000008F9000008F9000008AC
:10005000F9000008F9000008F9000008F90000089C
:1000600000000000F9000008F9000008F90000088D
:10007000F9000008F9000008F9000008F90000087C
:10008000F90000080000000000000000F90000086E
:1000900000000000F9000008F9000008F90000085D
:1000A00000000000F900000800000000F90000084E
:1000B0000448854600F0BCF900F048F800480047C5
:1000C00005200008D00700200C4880F308880C4861
:1000D0000168090E0B4A914205D10B480B4901609A
:1000E0000B480C4901600C4880470C480047FEE76C
:1000F000FEE7FEE7FEE7FEE7FEE70000D007002090
:10010000040000001F000000181002400100000061
:10011000000001400000000049090008B10000088B
:1001200030B50B46014600202022012409E00D468F
:10013000D5409D4205D31D469540491B2546954017
:1001400040191546521E002DF1DC30BD70B5054C2E
:10015000054D03E0206800198047241DAC42F9D109
:1001600070BD0000842D0008882D0008F8B50246F7
:100170004A40D40F42004B0052085B089A4202D218
:100180000246084611464A0023D0C30D4A00DDB29C
:10019000120EAD1A202D35DA49020126490AF6055C
:1001A0008A19002C00D0524220214F1B1146B94021
:1001B0002A411018C20D9A4221D0002C17D0012DCF
:1001C00008DCDA05801AD20F8019D207DBB200F002
:1001D000F5F8F8BDDA05801A012340001B06C018A7
:1001E00080185A428018CA0F1043490007E0490896
:1001F000C2071143DA05801A80194008801800F000
:10020000D5F8F8BD61000122511A001BF7E7012261
:10021000D2075140AAE70122D2075040A6E7024682
:1002200070B54A40D30FDB0740002DD04A002AD0DA
:10023000010E140E000212020919400A520A841813
:10024000E50104465443000A120A2E045043A4193F
:100250004219200CC543AA18120C0125AD03521CEB
:10026000521912047F39240400D0521C104301D4C7
:100270004000491EC2B20C06C0092018401C4008AC
:10028000802A02D003E0002070BD40084000002911
:1002900000DA0020184370BD70B502464A40D50F01
:1002A00040004A00ED0740085208002814D0002AF8
:1002B00012D0C40DD30D41020120C0055202490ADB
:1002C000520AE41A091812187D34914201D3641CB1
:1002D00000E04900002C01DA002070BD00239142AB
:1002E00001D3891A0343400849000028F7D10029A7
:1002F0000AD0914202D10121C90705E0914201D201
:10030000012101E00121C943E005C018401900F0B6
:100310004DF870BD420005D04200120E52428A4292
:1003200001DB00207047C90508187047C217C10FCC
:10033000504010B54018CA079623002100F03EF83F
:1003400010BD10B500229623114600F037F810BDFD
:10035000C20F410040020123400ADB05D207090E0B
:10036000C0187F2901DA00207047962903DC962304
:10037000591AC84001E096398840002AF4D040421A
:10038000704700000122D207002800DB101A002964
:1003900000DB511A814270470122D207002800DB9E
:1003A000101A002900DB511A88427047002904DA2C
:1003B000401C490001D140084000704770B400243F
:1003C000050C05D11024000402D1002921D01124EC
:1003D000050E01D100020834050F01D10001241DD2
:1003E000850F01D18000A41C002801DB4000641CA3
:1003F000002908D020252E1B0D46F540A14000D035
:1004000001212943084301061B1B000ADB1D02D5FD
:10041000002070BC7047DB05181880180029F8DA36
:10042000401C4900F5D170BC4008400070470000F6
:10043000064C0125064E05E0E36807CC2B430C3C37
:1004400098471034B442F7D3FFF736FE642D000806
:10045000842D000870B58C180578401C6B075B0F65
:1004600001D10378401C2A1106D10278401C03E018
:1004700006780E70401C491C5B1EF9D12B0705D471
:100480000023521E0DD40B70491CFAE70378401C60
:10049000CB1A921C03E01D780D70491C5B1C521E88
:1004A000F9D5A142D8D3002070BD836A0B43836283
:1004B000426170470029816801D0012200E00222D8
:1004C0001143816070470029C16802D001221143A5
:1004D00001E049084900C1607047C26802239A439D
:1004E000C260C2680A43C26070478268002101236B
:1004F000DB071A4382600F231B038268491CD20F5B
:10050000D207994201D0002AF7D18168002901DB86
:10051000006C70470020704730B5C268084B8C688B
:100520001A400B680D792343CC686D032C43234399
:100530000C69496923430B431343C36030BD00007A
:1005400003D2FFFF816804221143816070470021BC
:10055000016001718160C16001614161704700000B
:100560000029016802D00122114301E0014A114033
:1005700001607047FEFF000030B503680C4A0C6A4A
:1005800013408A684D6922430C692C4322438C69CD
:100590002243CC6922434C6A22438C6A22431A4389
:1005A0000260CA6842600A6882604968C16030BD02
:1005B0000F80FFFFF0B50B2706463F04384600F0DA
:1005C00067F804280FD1084C2069022528432061D0
:1005D00066612069402108432061384600F058F8E0
:1005E0002169A9432161F0BD00200240084904208F
:1005F000CA68D20701D001207047CA68D20601D567
:1006000002207047C9684907FBD5032070470000E6
:1006100000200240024801698022114301617047B5
:1006200000200240F8B5064600200B273F0400904A
:100630000D46384600F02CF8042815D10B4C2069E3
:100640000121084320613580384600F021F8042854
:1006500006D1B61C290C00963180384600F018F8F7
:100660002169490849002161F8BD000000200240CD
:1006700004480169090603D5034941600349416003
:10068000704700000020024023016745AB89EFCD91
:1006900000B50346FFF7AAFF02E0FFF7A7FF5B1EC6
:1006A000012803D0002B00D1052000BD002BF4D180
:1006B000FAE7F0B50022032501230C6893401C40A3
:1006C0009C422AD10C79012C01D0022C12D18768CE
:1006D00054002E46A640B74387604E79A6408468F2
:1006E0002643866084889C43848084888B799340E9
:1006F0001C438480066853002C469C40A643066039
:100700000E7907689E403E430660C668A643C660F1
:10071000CC799C40C3681C43C460521C102ACBD3C4
:10072000F0BD4B07DB0E9A40C90810B589000818C8
:10073000016A0F249C40A1430162016A11430162D6
:1007400010BD0185704781617047052000F0CEFE25
:100750000029016802D00122114301E04908490043
:1007600001607047012292030029416801D01143C2
:1007700000E09143416070470246926900200A42BE
:1007800000D001207047000010B5026852085200E6
:1007900002600268134B8C681A4024024B681443B1
:1007A000234303600F230A681B069A430261026811
:1007B00001231A43026000228260C2600B698A69C9
:1007C0001A43826082680123DB031A438260CA688D
:1007D0000368134303604268034B49691A4011439D
:1007E000416010BDFFE0CF00FF7FFF07406AC0B24D
:1007F000704781627047000070B5049D44688905A8
:10080000890D1204034E11431943344029432143F7
:10081000416070BD009800FC70B5FF2500210446C2
:10082000AD05C943FFF776FD06460F4960100C1A67
:1008300021463046FFF7F3FC2146FFF7F0FC29463E
:10084000FFF7E9FC2146FFF7EAFC04460146304683
:10085000FFF7E5FC2146FFF7E2FC2946FFF7DBFC4A
:100860002146FFF7DCFC70BDDF59375F044A0029E1
:10087000516901D0014300E081435161704700009C
:1008800000100240044A0029D16901D0014300E070
:100890008143D1617047000000100240044A0029E2
:1008A000916901D0014300E08143916170470000EC
:1008B0000010024004490A6B10239A430A630A6B32
:1008C00002430A637047000000100240044A0029F6
:1008D000116801D0014300E08143116070470000BE
:1008E000000001400CB50020009001901349112038
:1008F00008601348416841604168416041687B225B
:10090000D2039143416041680522D2041143416002
:100910000168012212061143016001688901FCD5BA
:1009200041688908890041604168022211434160A1
:1009300041680907890F0229FAD10CBD0020024045
:10094000001002407047000010B5144801680122F1
:10095000114301604168124A114041600168114A27
:1009600011400160016801229204914301604168D5
:100970003F22120491434160C16A09090901C16221
:10098000016BFF22543291430163416B49084900D6
:10099000416300218160FFF7A5FF10BD00100240F8
:1009A0000CB8FF08FFFFF6FE0029018802D00122E3
:1009B000114301E049084900018070474030002997
:1009C000818803D00122D203114301E04904490C7C
:1009D0008180704770B5028C520852000284048CEA
:1009E0008288038B7025AB439B080D889B001D43B9
:1009F00002239C438E894B882643104C3343A042EC
:100A000008D00F4CA04205D00E4CA04202D00E4C94
:100A1000A0420DD10824A343CC891C4304239C434A
:100A20008B882343094C22400C8A14434A8A224370
:100A30008280058389684163038470BD002C014076
:100A4000004001400044014000480140FFFC00001C
:100A500070B5028C10239A430284048C8288038B25
:100A60001A4D2B400D782D062D0C1D4320239C4341
:100A70008B891B051E0C4B8826431B051B0C144C35
:100A80003343A04202D0134EB04219D1124E32402D
:100A90000E8AB604360C3243A04211D18024A343FF
:100AA000CC892405240C1C4340239C438B881B05C4
:100AB0001B0C2343094C22404C8AA404240C2243DF
:100AC0008280058389688163038470BDFF8C000088
:100AD000002C014000400140FFFB0000FFF7000038
:100AE00030B5028C124B1A400284058C8288838BAD
:100AF000104C23400C782406240C1C430E4B1D4044
:100B00000B7B1B071B0C2B438D782D072D0C1D43D6
:100B10000A4B984205D10A4B13400A8A9205120CDF
:100B20001A438280848389680164058430BD000093
:100B3000FFEF0000FF8C0000FFDF0000002C0140F1
:100B4000FFBF000010B50288144B984206D0012464
:100B5000A407A04202D0124CA04203D17024A243A9
:100B60004C8822430F4CA04203D00F4C22400C89EA
:100B7000224302804A68C2620A880285984208D0ED
:100B80000A4A904205D00A4A904202D0094A90424D
:100B900001D1897A01860121818210BD002C01409A
:100BA0000004004000100040FFFC00000040014035
:100BB000004401400048014002E008C8121F08C17B
:100BC000002AFAD170477047002001E001C1121FCE
:100BD000002AFBD1704700000148002101607047E6
:100BE000F4000020F8B5124E4520000637460025D7
:100BF000183FB06001F062FE0024A000395880194F
:100C00000C4A01F0D6F9641C032CF6DB00F084FEDC
:100C1000FF20F5306D1C8542ECDB45210906B068EC
:100C2000FFF7F5FAB0600020401C0328FCDBF8BD9C
:100C3000100300201F856B3F70B592B02025032064
:100C40006946069508770024CC77092006A9C006D6
:100C5000FFF72FFD01214802FFF720FE0121084682
:100C6000FFF704FE244806902448079002200990CC
:100C700080200B9040000C90089480000E950D9001
:100C80000A94C0001E4D0F9006A910942846FFF745
:100C900073FC194E0221403E3046FFF71EFC012135
:100CA0003046FFF710FC6846FFF751FC012069460B
:100CB0000094087104200590029404943046FFF7D4
:100CC0002BFC0121072249043046FFF7EEFB0722E7
:100CD00020213046FFF7E9FB3046FFF706FC0121F3
:100CE0003046FFF7E7FB3046FFF72CFC0121284692
:100CF000FFF736FC12B070BD402401405C010020BB
:100D00000800024010B50949002803D0012808D086
:100D1000002010BD0888FFF714FB0549FFF77FFA94
:100D200010BD4888FFF70DFB10BD00005C010020DE
:100D30009965B03AF8B52249224D09688400002926
:100D400004D028592049FFF76AFA28511D4B1F4E3D
:100D50000833195900201E4AB14203D11759002FF8
:100D600000DD01201B4B1C4F994203D11159DA07BA
:100D700091420FD800280DD112480838015938592E
:100D8000FFF74DFA15490968FFF749FA2959FFF7A6
:100D9000EDF928516019314601F0F8F8094810388A
:100DA00001593859FFF73BFA064F29590837FFF721
:100DB000DDF93851E019314601F0E8F83859F8BD4D
:100DC000000000200C010020CDCC4C3FDB0FC940BF
:100DD00004030020DB0FC9C0440300202C000020C6
:100DE00070B5184C606A002804D00025012809D08D
:100DF000656270BD0120E06001F0CCFC606A401CBF
:100E0000606270BD172001F050FFC00608D58F2129
:100E1000002001F06DFF6562E56001F0D5FA70BD5C
:100E200000F07AFD616B401A07498842F7D9E1204A
:100E300001F01CFF8F21002001F05AFF6562E56080
:100E400070BD00004C0000201027000070B5002588
:100E500006462C46A00030580146FFF7E0F9294627
:100E6000FFF784F9641CE4B20546032CF2D3FFF7C4
:100E7000D3FC01467F20C005FFF70EFA70BD0000CD
:100E8000F8B51B4E0C22716833685143194A9C0017
:100E90008A18164D1159002807D0491C164D1151BA
:100EA000002B09D15068401C05E0491E1151002B50
:100EB00002D15068401E5060B76829463859FFF784
:100EC000AEF938513468002C04D129467868FFF710
:100ED000A6F9786070680C21484306494018A100C3
:100EE0004058002800DA4042F8BD00002EBA683FA2
:100EF0001C0100205C030020CDCC8C3F30B50022CB
:100F000007239C1A6418203C855CE47FA54201D02D
:100F1000002030BD521C072AF3DB012030BD000049
:100F2000FEB5072001F0C1FE0007400F002507288D
:100F300001D0022000E028460126584C002859D054
:100F4000606800281DD000F0E7FC07460F215448D8
:100F500001F097FE00F052FA00284BD0E06A401CE6
:100F6000E062E069002801D0FFF73AFF6561A56102
:100F7000A068A763E76325616064E068002837D054
:100F80003BE00F21464801F07CFE454B1868A42841
:100F900001D0A3282ED1A32802D14248E6612062C5
:100FA0003E4F187E28373870187F7870188CB870CC
:100FB000988CF8703C486A4603C800900191012063
:100FC0008100595C1154401C0628F9DB06211046AB
:100FD00001F02BFE3020694608700621684601F0BA
:100FE00024FEA068395C252001F082FE666001E0E5
:100FF00001F0EAF9E068002801D0FFF7F1FE00F007
:101000008BFC0746A06B391A206A82007D20C00045
:10101000101881420BD96068002808D0A763A06926
:10102000002801D1606CA06001F0CEF9A661E168F2
:10103000A069084319D160690090052815D260683D
:10104000002812D0A06B7D21381AC90088420CD923
:10105000216AFFF765F801460098401C814204D3DD
:1010600001F0B2F96069401C6061E06B381A0F4F03
:10107000B84205D90E482661056045608560C560A7
:1010800000F04AFC216C401AB84205D9E06AE562DA
:10109000206300F041FC2064FEBD00004C000020F5
:1010A000BC02002088130000442D000840420F00BD
:1010B00094020020F0B57F2085B0C005B64E0090A8
:1010C0007078002802D13F2000060090B34C002524
:1010D000B348AF00C0590099FFF7A1F86D1CE0516B
:1010E000032DF5DBAF4800250068002831D000F063
:1010F00091FB00282DD0032805D0AB4A02280FD041
:10110000012811D013E000F021FCFFF76BFD00F087
:10111000C1FA00F07DFA00F0FFFBA449086018E076
:1011200001213171116002E001211160357100214E
:10113000042806D0052807D0062854D0072855D003
:1011400005E001F025F901E001F00EF901469848AB
:10115000016001F011FA3078964E974F002803D0C5
:1011600096480068002844D092492068FFF757F855
:101170009149FFF754F8924E3168FFF748F8874FCE
:101180008C490C3F38606068FFF749F88A49FFF7DF
:1011900046F87168FFF73BF878608649A068FFF76A
:1011A0003EF88549FFF73BF8B168FFF730F8B860C3
:1011B000844F0024A600B8598349FFF730F8641C17
:1011C000B851012CF6DD002001F020F9012001F0DA
:1011D0001DF9022001F01AF971487C49C068884263
:1011E0004CDA002450E000F057FEAFE700F06EF953
:1011F000ACE7002001F056FC3146A068FFF70FF87D
:101200003946FFF70CF80646714C31466068FFF727
:1012100006F8009001212068C90748403146FEF7D2
:10122000FEFF01903146A068FEF7F9FF694F6A4E54
:10123000029031463868FEF7F2FF684C3146206074
:101240007868FEF7ECFF6060544F00240C3F2046A6
:10125000FFF770FDA60069468959FEF787FF5849D8
:101260008959FEF7D4FF641CB851022CEFDB5448B7
:1012700081680298FEF7CBFFB860A4E7FEF7C7FFCE
:101280005749FEF7CCFF044656480068002802D1B3
:10129000554884421CDA434E7068002807D000F09D
:1012A0003BFB7168401A5149884200D9756000249F
:1012B000E0B2002101F0EAF92146002001F02CF80B
:1012C000641C032CF4DD0120B560306005B0F0BD76
:1012D000344D0020286000F01FFB6860444800681F
:1012E000002801D04348C468434D20462F68394642
:1012F000FEF78DFF04906E683146FEF788FFAD68FB
:101300002946FEF733FF039039462046FEF72EFFAD
:1013100004463146FEF77BFF2946FEF778FF019031
:1013200031460498FEF722FF2946FEF770FF02902F
:1013300020463146FEF71AFF2946FEF717FF0090B8
:101340000020184F04466E46B860A500705921462B
:1013500000F0E2FF705101F005F80146E0B201F043
:1013600095F970590121C907884202D900207051AE
:1013700004E07F21C905884200DD71517159B868C8
:10138000FEF7F4FE641CB860032CDEDD0121C943C6
:10139000FEF7C0FFB86099E7C8010020880100206F
:1013A00094020020000000201C00002030000020DB
:1013B000200000200000344435FA8E3CD00000208C
:1013C000040300200C010020CDCC4C3FCDCCCC3D03
:1013D000C400002028030020E12E654244030020C1
:1013E000E4388E3F5C0000206F12833A40420F00C9
:1013F000D8000020340300208C030020F8B52D4CC9
:101400002068A52853D1002108468200A258401C1C
:1014100051180E28F9DBC8B2A16B884247D1254884
:10142000103000F0E2FF244D28602248183000F010
:10143000DCFF68601F48283000F0D7FFA860208CD0
:10144000616A8007800D4018FEF770FF1B49FEF7A8
:10145000E6FEE860207B1A4D0006C00FA871A06868
:10146000C106C90FE9718106C90F29720107C90FA9
:1014700029706168FA2918D0002169708107C90FA5
:10148000C007A970C00FE87000200E4B0E4C074635
:1014900001261F54225C295C8A4200D01E5421542C
:1014A000401C0A28F5DB0120F8BD0121E5E70020FA
:1014B000F8BD0000BC02002094020020F7FF7F3A34
:1014C000C8010020B0020020A402002010B50020B6
:1014D000FFF7D6FC10BD08B5810040180090411EF2
:1014E000009101D30846FAE708BD00000646002433
:1014F000E0B2002101F0CAF8641C032CF8DD0B4DAA
:10150000AF0000240CE0FF2000F036FD2846FFF776
:10151000E2FFFF2000F026FD2846FFF7DCFF641CF9
:10152000B442F0DB3846FFF7D6FFEAE7400D030090
:1015300010B50349FEF71AFE00F004F810BD0000D4
:10154000DB0FC93F70B50446134E144D03E031461E
:10155000FEF70CFE0446AC42F9D8114DAC4204DD56
:101560003146FEF754FE0446F8E70120C0070D4956
:101570000D4D8442204605D9FEF751FE2946FEF75F
:10158000F5FD04E0FEF74BFE2946FEF744FE21463A
:10159000FEF745FE70BD0000DB0FC940DB0F49C000
:1015A000DB0F49407B81CF3E83F9A23FFEB5002788
:1015B0003D460024681CFEF7B9FE01900E49A800C4
:1015C0000E58601CFEF7B2FE0090A1007158019801
:1015D000FEF725FE0099FEF722FE0849FEF71FFEE2
:1015E0003946FEF7C3FD641C0746032CE9DB6D1C7E
:1015F000032DDEDBFEBD0000500100208D976E3F05
:1016000010B5FFF7D3FF0149086010BD9C00002012
:10161000F8B50020012400F08FF81A4DA84230D10F
:10162000FF2000F089F8A8422BD12046022500F0C7
:101630008BF8154948600968FEF7A4FE11D1002611
:101640000024B70028466D1C00F07EF80F49A20068
:10165000C959641C8850032CF4DB761C032EEFDB85
:1016600000E00B2528466D1C00F06EF8084C206049
:1016700028466D1C00F068F86060284600F064F8A9
:10168000A060F8BD0100AA129C00002050010020BB
:1016900010030020F8B500F05BF800F03BF80020E4
:1016A0000124184901F0D2FA174920460225096899
:1016B00000F052F800260024B7001448A100C059D9
:1016C000415828466D1C00F047F8641C032CF4DBDD
:1016D000761C032EEFDB0E4C28466D1C216800F0B3
:1016E0003BF86E1C2846616800F036F83046A16869
:1016F00000F032F80349FF2001F0A8FA00F018F8D2
:10170000F8BD00000100AA129C000020500100203A
:101710001003002010B50548FEF74CFF042803D045
:10172000FEF778FF012010BD002010BD003C00082E
:1017300010B5FEF76FFF10BD024980004018006829
:1017400070470000003C000800B5FFF7F5FF00BD42
:1017500010B5FEF78DFF10BD10B501F077FA10BD82
:1017600030B52A4C217881424ED007216218203AA8
:10177000D27F6254491E0129F8DA20702449234897
:10178000FFF7BCFB7F25002802D06570012030BD2B
:101790001F491E48C91DFFF7B1FB002802D0657024
:1017A000022030BD1A4919480E31FFF7A7FB002867
:1017B00002D06570032030BD154914481531FFF77C
:1017C0009DFB002802D06570042030BD10490F48F1
:1017D0001C31FFF793FB002802D06570052030BD57
:1017E0000B490A482331FFF789FB002802D06570B6
:1017F000062030BD064905482A31FFF77FFB002847
:1018000002D06570072030BD002030BD44000020AC
:10181000122D000870B53748374C0068002864D096
:10182000364B37481A685100490881420BDA9D68E7
:101830006D006D08854206DA5D686D006D088542B1
:1018400001DA00202FE02F4DAA4202D89E68AE4256
:1018500006D95E6876007608864201DA012022E029
:10186000294EB24202DC9A68B24206DD5A68520042
:101870005208824201DA022015E05A68AA4208D9C9
:10188000814206DA9D686D006D08854201DA032009
:1018900009E0B24208DD814206DA99684900490848
:1018A000814201DA0420206000F036F806CC083CC2
:1018B000914200D0E060E268801A144A90420FD949
:1018C000002904D1124A904201D90C2005E0114AA6
:1018D000904204D97F2903D0FF20A06000E0A160DE
:1018E0006160A068FFF73CFF70BD7F20A060606072
:1018F000002070BD00000020340000209402002071
:10190000CDCC4C3E333333BF3333333FA08601005D
:1019100040420F0020A1070010B501F065F910BD8D
:101920001CB5232001214004FEF7A0FF01206946D9
:10193000087100208871C87103204871022000904E
:101940000148FEF7B6FE1CBD00140048F0B591B08A
:10195000FFF7E2FF0F9005460B900A9000208100F0
:10196000574B0CAA5B58401C53500328F7DB8CE004
:101970000A980A95281A099001D101200990062297
:101980006946432000F09EF9009801990002401832
:1019900000B2FEF7CBFC07900298039900024018B2
:1019A00000B2FEF7C3FC06900498059900024018A7
:1019B00000B2FEF7BBFC434E0890307800F07EFA90
:1019C00020464149FEF7ACFB4048814201D9012144
:1019D00000E000213068C207D20F914201D0401CC4
:1019E0003060384801780907090F00260160B4000B
:1019F0000CAF06A839590059FEF7CEFC04D238596D
:101A00003349FEF7B3FB385106A839590059FEF7A0
:101A1000B9FC04D238592E49FEF7F9FB3851E019C8
:101A20002C4900F0B3FA38592B4940004008FEF722
:101A30009DFB014606AF385940004008FEF7ACFC5C
:101A400006D2FFF769FF0B901E48012101600BE0F1
:101A50000998FEF776FC214900F0C1FA02461848C1
:101A60003959201800F0A5FA761C032EBFDB7D241F
:101A7000E400FFF751FF401BA04203D20A20FFF70A
:101A80002AFDF6E7FFF748FF05460B982C1A144885
:101A9000844205D20F981349281A884200D267E77A
:101AA0000B98291A0E48814207D20020044A0146A9
:101AB0008300401CD1500328FADB11B0F0BD0000B8
:101AC0001C030020B800002024F40000127A00005B
:101AD000CDCCCC3D000048440000C8420024F4486E
:101AE00080841E00C0E1E40010B58AB0022069467F
:101AF000087101208871C871032040020924E4069E
:101B000000902046FEF7D5FD042209212046FEF76D
:101B100008FE04220A212046FEF703FE01214805A3
:101B2000FEF7B0FE01210846FEF7B8FE0121880548
:101B3000FEF7CCFE0121C805FEF7C8FE1020FEF717
:101B4000B9FE0B48029000200F2104910390AB21B5
:101B5000084C059007900691089002A92046FEF7D0
:101B600013FE01212046FEF7F3FD0AB010BD000070
:101B70001808700000540040F8B50F4616460121C1
:101B800000F03AF80920800201230090F2B25B06CF
:101B9000D0211248FEF730FE114D0020287018E0C9
:101BA000002408E0641C600B05D00E490868401C46
:101BB00008600020F8BD04210848FEF7DDFD00287C
:101BC000F0D00648FEF712FE29788A00B850491C6A
:101BD00029702878B042E3DB0120F8BD00540040B2
:101BE000780100206001002008B501226946FFF756
:101BF000C3FF009808BD0000F3B581B00F46002474
:101C00001A4D1B4E02E0641C600B22D10121C90356
:101C10003046FEF7B1FD0128F5D0012040030090C9
:101C2000FAB20023D0213046FEF7E6FD02E0641C44
:101C3000600B0ED102213046FEF79EFD0028F6D043
:101C40000198C1B23046FEF7D4FD07E0641C600B7A
:101C500004D02868401C28600020FEBD01213046C9
:101C6000FEF78AFD0028F1D00120FEBD60010020B2
:101C70000054004070B50D4600240221FFF7BCFF60
:101C8000E9B20C4D2846FEF7B4FD07E0641C600B7A
:101C900004D009490868401C086070BD40212846EE
:101CA000FEF76AFD0028F1D001212846FEF75AFD13
:101CB00070BD0000005400406001002010B5FFF727
:101CC00013FF10BD10B5FFF757FF10BD10B5FFF79C
:101CD0008BFF10BD10B5FFF7CDFF10BDF0B58FB075
:101CE00053490CA800F098FFFFF716FE504D04462C
:101CF000083D6868201AFEF724FB7F26F6056C6015
:101D0000B04201DA304603E04A49884200DD084625
:101D10004949FEF784FA494C0090494D21682868EA
:101D2000FEF775FA286061686868FEF770FA0024AB
:101D30006860A7000A21E859C943FEF7EBFA641C62
:101D4000E851032CF5DB00243E48A700C059009958
:101D5000FEF765FA09A9641CC851032CF4DB0C9941
:101D60000998FEF75CFA0E99FEF755FA01460E90B7
:101D70000998FEF754FA0C99FEF7F8F90C900E99B1
:101D80000A98FEF74CFA0D99FEF7F0F901460D900E
:101D90000A98FEF744FA0E99FEF73DFA0E900D9957
:101DA0000B98FEF73CFA0C99FEF735FA01460C90B9
:101DB0000B98FEF734FA0D99FEF7D8F90D902048EC
:101DC000FFF744F82049214A4118914225D20146A3
:101DD00000243046FEF760FA0746A6003846A959A7
:101DE000FEF71DFA641CA851032CF6DB01218907BC
:101DF000009800F0F4F8074600240CAEA000295823
:101E000080193A4600F0D5F8641C032CF6DB08492B
:101E100008390868401C086003E0054800210838BC
:101E200001600CA9024800F0F7FE0FB0F0BD000001
:101E3000C400002000409C46BD37863510030020BA
:101E4000F802002004030020CCCCCCC03233730055
:101E5000F8B500250D4F00F031FD0024A6000A2141
:101E6000B859C943FEF756FA01460948094A3018DD
:101E700000F09FF8641C032CF0DB7D20C000FFF70E
:101E80002AFB6D1C642DE6DBF8BD0000F802002083
:101E9000C40000209A99593F10B50120FEF7F0FFC9
:101EA00010BD0EB500226B461A805A8001911A812E
:101EB0009A726946FEF746FE0EBD000070B50646F2
:101EC000FFF72AFD194C21692061451A3046FEF7BB
:101ED00038FA1749FEF7A3F906460121204689077B
:101EE0000C3000F053F82846FEF72BFA0546304632
:101EF0006168FEF78CF92946FEF791F90D49FEF766
:101F00008EF9E168FEF732F90B49E060884205DDA1
:101F1000FF2000F031F87F20C00503E0FF2000F033
:101F200021F800206060002070BD0000A4000020A7
:101F30008988883D6F12833A48E1FA3E70B50D46B4
:101F40000446FFF7E9FC2146FEF7EAF86C43200956
:101F5000814203D90F2000F00FF870BD0F2000F070
:101F600001F870BD10B5C00703D002210148FEF78B
:101F7000E8FB10BD0014004810B5C00703D00221D3
:101F80000148FEF7E0FB10BD0014004870B50446A0
:101F90000120C0070D4645400E462068FEF7FCF9BB
:101FA00000D2266028462168FEF7F6F900D22560A7
:101FB00070BD70B505460C467F2016461146C0051B
:101FC000FEF725F92146FEF72AF90446314628682E
:101FD000FEF725F92146FEF7C9F8286070BD10B557
:101FE000FEF75AF97F24E4052146FEF714F9A042D2
:101FF00001DD204610BD0121C9078842FAD9002021
:1020000010BD00007D2086B0C000FFF764FAFFF726
:1020100087FC00F0D3FC00F0D1FDAF48FFF75BFA7E
:10202000FFF74CFE00F0B8FA0021084600F02EFB46
:102030000021012000F02AFB0021032000F026FBF4
:102040000021022000F022FB00F00EFC00F0FCFB5F
:10205000002822D0FEF7F0FDA04901208872087107
:1020600000F046FB9E4D00240020FEF74BFE296841
:10207000FEF77CF828607D20C000FFF72CFA641C76
:10208000402CF1DB0521C9432868FEF743F9954947
:102090002860884203DA022031E004202FE0FFF7B5
:1020A00055FCFFF7ADFAFFF7B3FA00F01FFBFFF79F
:1020B000CFFE8D480068002801D007201FE0FFF701
:1020C0002BFC6862FFF728FC854C0546606A281ADD
:1020D000FEF737F92062002802DC7F20C00520626D
:1020E0008249FEF79CF882492062884201DD062081
:1020F00005E07D4865620068142802D90820FFF7D2
:10210000F5F900F0DBFBFFF7E9FD0020FEF7FAFD33
:10211000734C06466060FEF7CDFF7748754F016847
:102120003A4602A8FFF745FF3A4631462046FFF7F8
:1021300040FF0020019069489C3000680090E669EB
:102140003046FEF7F3F86D49FEF769F80299FEF79D
:1021500066F82168FEF70AF86049B4006C3108514E
:102160000F4604900646303F39596448814200DAF0
:102170003E515A4862490C300059FEF750F803901E
:1021800039593046FEF743F80399FDF7EFFF0499FC
:1021900039515249514E0C31085141009C36490881
:1021A000A019584AFFF705FF4D49C869401CC8618E
:1021B0000C2801DB0020C8610024A700F059009919
:1021C000FEF7E0F802D2F05901940090641C0C2C48
:1021D000F3DB434CE068002800D048484A49FDF74B
:1021E000C5FF06460198FEF7A1F84449FEF717F827
:1021F00007460299FEF713F82168FDF7B7FF31464D
:10220000FEF7C0F801D2012000E00020E06038466F
:102210000299FEF704F82168FDF7A8FFA060E068C6
:10222000002801D0082108E038480068002806D0BE
:1022300037480068002804D00F2136482DE00C21D3
:1022400013E02069002812D0A069002802D1FFF70E
:1022500063FBA061FFF760FBA169411A2D48814231
:1022600002D900202061A06108211B4815E06069A7
:10227000002815D0A069002802D1FFF74DFBA0610E
:10228000FFF74AFBA169411A2248814204D96169DA
:10229000491E61610021A1610121FFF74FFE0AE0A3
:1022A0000E48807A002803D0FF20FFF765FE02E089
:1022B000FF20FFF757FEFEF733FE00F095F87D2470
:1022C000E40002E00A20FFF706F9FFF725FB401BB8
:1022D000A04200D3F6E6F5E7A0860100C801002081
:1022E0000C0000203333534060010020BD37863599
:1022F0000AD7A33C492E7F3F08000020CDCCCC3D1F
:1023000091ED7C3F5BB17F3F0000604050000020BA
:102310005C00002020A10700F3B58C00104E0121C5
:1023200083B03059C943FDF7F5FF3746103F0190A0
:102330003D590021C9432846FDF7ECFF01210090DB
:10234000C9430398FDF7E6FF0099FDF70FFF0199D8
:10235000FDF70CFF35510399395105B0F0BD000070
:10236000A8010020704700000849022208680228DE
:1023700004D0002805D0012803D003E00020086025
:1023800000E00A600868401C704700001C01002043
:102390000C494868002804D0012807D002280AD137
:1023A0000BE008481C308860012003E00548283015
:1023B000886002204860401C7047024810308860E6
:1023C0000020F7E71C01002010B50649087A401CE0
:1023D0008007800F88602831095C252000F088FC88
:1023E00010BD00004C000020704710B54168007817
:1023F0008007800DFF38FF3802380818FDF796FF78
:102400000821C943FDF786FF10BD0000F1B5524811
:1024100084B001680498514F514E8400002904D0C3
:1024200038595049FDF7FBFE38514F4800250159F6
:102430004A480C300059FDF7A5FF03D13059002858
:1024400000DD0125484801210059C907484043499A
:102450000C310959FDF796FF04D131590120C0070D
:1024600081421BD8002D19D13C48355918300159EB
:102470002846FDF77BFE0021C943FDF74BFF3B4992
:102480000959FDF7CCFE3A490968FDF7C8FE3959EC
:10249000FDF76CFE385131481830055132480C3088
:1024A00001592E482018FFF771FD2C483038055986
:1024B0007F202946C005FDF7AAFE3159FDF7AFFE82
:1024C0002A490C390F593946FDF7A9FE0190234ED0
:1024D0000120C0070C3668403946FDF7A0FE2549AB
:1024E00009590091FDF79BFE0199FDF73FFE1B493D
:1024F0000959FDF73BFE039004983746C50018378D
:10250000E819019000214068C943FDF703FF00214D
:102510000290C9430098FDF7FDFE0299FDF777FE92
:1025200012490C310959FDF77AFE10491C39C96866
:10253000FDF775FE0399FDF76EFE3051019879594C
:1025400041600099084879510159A019FFF71EFD13
:10255000305905B0F0BD00000000002080030020CD
:102560007C010020CDCC4C3F4C2D000838010020D0
:102570002C0000200403002010B504480168044822
:10258000FDF78AFE0349C86010BD00002C00002042
:1025900017B7513B1C010020FEB5022569460D719D
:1025A0000320487100248C71CC7101212846FEF76C
:1025B00069F9314F31483946FFF773FC01210E02AA
:1025C0003046FEF75FF939462D4F3846FFF769FC74
:1025D0002C48602101800121418084810682846031
:1025E00010200924E406009069462046FEF761F8B1
:1025F000042211462046FEF794F822493846FEF799
:10260000E9F94020009069462046FEF752F8012281
:1026100006212046FEF785F81A491848FEF7DAF930
:102620008020009069462046FEF743F801220721EA
:102630002046FEF776F813491048FEF709FA124CC7
:10264000694620460095FEF734F8012211462046DF
:10265000FEF767F80B490948FEF742FA01210748DF
:10266000FEF7A2F901210548FEF7A8F90121384635
:10267000FEF79AF9FEBD00006F170000000400404D
:1026800000200040BC0300200004004810B50A46AA
:10269000044612491046FDF7C2FDFDF759FE002819
:1026A00001DA002003E00E49884200DD08460D49AA
:1026B000002C08D0012C08D0022C0AD0032C01D108
:1026C00080B2886310BD80B201E0074980B24863E0
:1026D00010BD044980B24031086010BD0078BB4590
:1026E0006F17000000040040002000407047000009
:1026F00010B52648012181720022C27201710221A7
:10270000234800F092FA6420FEF7E5FE20480621F7
:10271000483000F08AFA0021012000F0E9FA012196
:10272000022000F0E5FA0721062000F0E1FA0F216F
:10273000112000F0DDFA0021042000F0D9FA032175
:10274000084600F0D5FAE22000F090FA00210520BA
:1027500000F0CEFA38211D2000F0CAFA00F028F966
:10276000FD2000F079F9002000F076F900F01AF968
:102770008F21002000F0BCFA0F2000F096FAC62846
:1027800002D00320FEF7B2FE10BD0000C8010020F9
:102790004C00002070B590B000206C468100605065
:1027A000401C0F28FADB852000902248224D066845
:1027B0002248019629460068FDF731FDFDF7C8FD66
:1027C0000104C0B2090E049003911D482946006817
:1027D000FDF725FDFDF7BCFD0104090EC0B2194D42
:1027E00005910690286BC10F08184010FF2800DDE6
:1027F000FF200790002E03D0039808210843039080
:10280000002108468200A258401C51180E28F9DB0E
:10281000E1200E9100F02AFA8221002000F068FAEF
:102820000F21684600F050FAFFF776F8686310B0A1
:1028300070BD0000180000200000C8420C000020FD
:10284000140000204C00002010B57520FFF73EFA60
:10285000682807D0782805D07D2803D0722801D0B9
:10286000002010BD012010BD10B580216B20FFF7A6
:1028700031FA1148FEF72FFE01216B20FFF72AFAEB
:102880007520FFF723FA682801D0012400E0002416
:1028900018211C20FFF71EFA002C03D005211D2053
:1028A000FFF718FA18211B20FFF714FA03211A204A
:1028B000FFF710FA10BD0000409C0000F0B593B087
:1028C0000E2269463B20FFF7FDF9009801990002AE
:1028D000401800B24042FDF729FD064602980399D0
:1028E0000002401800B22C4D4042FDF71FFD074684
:1028F000049805990002401800B2FDF717FD012465
:10290000E40767406640A860C0C5089809990002BE
:10291000401800B2FDF70AFD11900A980B990002C9
:10292000401800B2FDF702FD10900C980D990002BE
:10293000401800B2FDF7FAFC12901C352968109877
:10294000FDF765FC109069681198FDF760FC119027
:10295000A9681298FDF75BFC129011982F46604011
:102960001190109810AE6040109011986040119036
:10297000129860400024183F1290A5007059074932
:10298000FDF74DFC0649FDF74AFC7051641C785177
:10299000032CF2DB13B0F0BDF802002000007A3DFA
:1029A00035FA8E3C08200921C9068861704700006D
:1029B000014908200881704720000048FEB5012425
:1029C0006846047100258571C47103264671042090
:1029D000009009206946C006FDF76BFE0827092014
:1029E0006946C0060097FDF764FE084802210160B1
:1029F00005718571C471467101460920C006FDF755
:102A000058FE0920C0068761FEBD00006801002055
:102A100070B50E49092508680024ED06002806D087
:102A2000002008600A4908712846FDF742FE072089
:102A30000122084B04216400A9612E8AB60700D543
:102A400014431981401EF6D5204670BD6401002054
:102A5000680100202000004870B504460E48092592
:102A60000168ED06002907D1012101600B480171C1
:102A700001462846FDF71DFE07210220084B0422CF
:102A800026460E41F60701D0A86100E01881AA6130
:102A90001A81491EF4D570BD640100206801002030
:102AA00020000048F8B53E4E3E4C70682146FDF7C8
:102AB000B6FB3D4D2946FDF7B2FB0746214630687F
:102AC000FDF7ADFB2946FDF7AAFB0446FEF73AFDEC
:102AD00005463846FEF736FD06463846FEF728FD21
:102AE00007462046FEF724FD3946FDF798FB0446CD
:102AF00031463046FDF793FB074629462846FDF749
:102B00008EFB3946FDF732FB2849074688420FDD28
:102B100021462046FDF783FB7F21C905FDF77BFB9E
:102B200001463846FDF7B8FBFDF776FE074600E0A4
:102B30001F4F28463946FDF772FB00903046394654
:102B4000FDF76DFB1B4E0146B7683846FDF767FB86
:102B5000054621467068FDF762FB2946FDF757FBE5
:102B6000154D214628603068FDF759FB044638466C
:102B70000099FDF754FB2146FDF749FB7F24E4054E
:102B8000686021462846FFF701FA2146281DFFF715
:102B9000FDF903CD083D2960210248406860F8BD79
:102BA0008801002000008C4235FA8E3C6F12833A77
:102BB000F4FD343FC40000202803002010B508486D
:102BC000064941610749CA6903231202120A4404F3
:102BD0002243CA6100218161036110BD7F8D5B00CA
:102BE00000E000E004ED00E010B5094842698169A9
:102BF000084C2068814201D2401A01E0521A101894
:102C000021600621FDF78CFA61684018606010BDF4
:102C100000E000E07001002010B500229300CC58C5
:102C2000521CC450032AF9DB10BD70B50D46064690
:102C3000FFF7BEFE002404E0305DFFF70DFF641CCB
:102C4000E4B2AC42F8D3FFF7ADFE70BD064A10B552
:102C500080008018FDF7E6FC042804D0FDF7DAFCBC
:102C60000520FEF743FC10BD003C000810B50446EB
:102C7000FFF79EFE2046FFF7EFFEFFF793FE0020D2
:102C800010BD70B50D4606460024FFF791FE612089
:102C9000FFF7E2FE04E0FFF7BBFEA1007050641CEA
:102CA000AC42F8DBFFF77EFE70BD10B5C406E40E43
:102CB000FFF77EFE2046FFF7CFFEFFF7A9FE044692
:102CC000FFF770FE204610BD70B50D460646002485
:102CD000FFF76EFEA020FFF7BFFE04E0A000305813
:102CE000FFF7BAFE641CAC42F8DBFFF75BFE70BD79
:102CF00070B58406A40E20200D460443FFF758FE4D
:102D00002046FFF7A9FE2846FFF7A6FEFFF74AFE7A
:102D100070BD0C0100010003000C02000200030062
:102D20000C0300030003000C0400030004000C0467
:102D300000030003000C0400030002000C04000365
:102D4000000100002A00000000000000CDCC4C3F34
:102D5000CDCC4C3FCDCCCC3ECDCC4C3FCDCC4C3F64
:102D6000CDCCCC3E882D0008000000207C01000066
:102D700054040008D42D00087C01002054060000F3
:102D8000C80B000855DEFFFF32012904812D66665D
:102D9000864004A91401280A1D39350326B80B9270
:102DA0002A032E20C1032C803F2D295C0F3E0401F5
:102DB00020132C0142202D7B142E3E0449685AC05A
:102DC00004111A3F143904692C1A38045A44340186
:042DD0001C000000E3
:04000005080000C926
:00000001FF
